{
  "_format": "hh-sol-artifact-1",
  "contractName": "FactoryFrenzy",
  "sourceName": "contracts/FactoryFrenzy.sol",
  "abi": [
    {
      "inputs": [
        {
          "internalType": "contract IERC20",
          "name": "_rewardToken",
          "type": "address"
        }
      ],
      "stateMutability": "nonpayable",
      "type": "constructor"
    },
    {
      "inputs": [
        {
          "internalType": "address",
          "name": "owner",
          "type": "address"
        }
      ],
      "name": "OwnableInvalidOwner",
      "type": "error"
    },
    {
      "inputs": [
        {
          "internalType": "address",
          "name": "account",
          "type": "address"
        }
      ],
      "name": "OwnableUnauthorizedAccount",
      "type": "error"
    },
    {
      "anonymous": false,
      "inputs": [
        {
          "indexed": true,
          "internalType": "address",
          "name": "collector",
          "type": "address"
        },
        {
          "indexed": false,
          "internalType": "string",
          "name": "jobSpotId",
          "type": "string"
        },
        {
          "indexed": false,
          "internalType": "uint256",
          "name": "reward",
          "type": "uint256"
        }
      ],
      "name": "JobCollected",
      "type": "event"
    },
    {
      "anonymous": false,
      "inputs": [
        {
          "indexed": true,
          "internalType": "address",
          "name": "previousOwner",
          "type": "address"
        },
        {
          "indexed": true,
          "internalType": "address",
          "name": "newOwner",
          "type": "address"
        }
      ],
      "name": "OwnershipTransferred",
      "type": "event"
    },
    {
      "inputs": [
        {
          "internalType": "string",
          "name": "jobSpotId",
          "type": "string"
        },
        {
          "internalType": "string",
          "name": "jobSpotUUID",
          "type": "string"
        }
      ],
      "name": "collectJob",
      "outputs": [],
      "stateMutability": "nonpayable",
      "type": "function"
    },
    {
      "inputs": [
        {
          "internalType": "uint256",
          "name": "amount",
          "type": "uint256"
        }
      ],
      "name": "depositTokens",
      "outputs": [],
      "stateMutability": "nonpayable",
      "type": "function"
    },
    {
      "inputs": [],
      "name": "getAllJobSpots",
      "outputs": [
        {
          "internalType": "string[]",
          "name": "",
          "type": "string[]"
        }
      ],
      "stateMutability": "view",
      "type": "function"
    },
    {
      "inputs": [
        {
          "internalType": "string",
          "name": "jobSpotId",
          "type": "string"
        }
      ],
      "name": "getJobReward",
      "outputs": [
        {
          "internalType": "uint256",
          "name": "",
          "type": "uint256"
        }
      ],
      "stateMutability": "view",
      "type": "function"
    },
    {
      "inputs": [
        {
          "internalType": "uint256",
          "name": "size",
          "type": "uint256"
        }
      ],
      "name": "initialize",
      "outputs": [],
      "stateMutability": "nonpayable",
      "type": "function"
    },
    {
      "inputs": [
        {
          "internalType": "uint256",
          "name": "",
          "type": "uint256"
        }
      ],
      "name": "jobSpotIds",
      "outputs": [
        {
          "internalType": "string",
          "name": "",
          "type": "string"
        }
      ],
      "stateMutability": "view",
      "type": "function"
    },
    {
      "inputs": [
        {
          "internalType": "string",
          "name": "",
          "type": "string"
        }
      ],
      "name": "jobSpots",
      "outputs": [
        {
          "internalType": "string",
          "name": "UUID",
          "type": "string"
        },
        {
          "internalType": "uint256",
          "name": "reward",
          "type": "uint256"
        },
        {
          "internalType": "address",
          "name": "collector",
          "type": "address"
        }
      ],
      "stateMutability": "view",
      "type": "function"
    },
    {
      "inputs": [],
      "name": "owner",
      "outputs": [
        {
          "internalType": "address",
          "name": "",
          "type": "address"
        }
      ],
      "stateMutability": "view",
      "type": "function"
    },
    {
      "inputs": [],
      "name": "renounceOwnership",
      "outputs": [],
      "stateMutability": "nonpayable",
      "type": "function"
    },
    {
      "inputs": [],
      "name": "rewardToken",
      "outputs": [
        {
          "internalType": "contract IERC20",
          "name": "",
          "type": "address"
        }
      ],
      "stateMutability": "view",
      "type": "function"
    },
    {
      "inputs": [
        {
          "internalType": "string",
          "name": "jobSpotId",
          "type": "string"
        },
        {
          "internalType": "string",
          "name": "jobSpotUUID",
          "type": "string"
        }
      ],
      "name": "setJobSpotUUID",
      "outputs": [],
      "stateMutability": "nonpayable",
      "type": "function"
    },
    {
      "inputs": [],
      "name": "totalRewards",
      "outputs": [
        {
          "internalType": "uint256",
          "name": "totalReward",
          "type": "uint256"
        }
      ],
      "stateMutability": "view",
      "type": "function"
    },
    {
      "inputs": [
        {
          "internalType": "address",
          "name": "newOwner",
          "type": "address"
        }
      ],
      "name": "transferOwnership",
      "outputs": [],
      "stateMutability": "nonpayable",
      "type": "function"
    },
    {
      "inputs": [
        {
          "internalType": "uint256",
          "name": "amount",
          "type": "uint256"
        }
      ],
      "name": "withdrawTokens",
      "outputs": [],
      "stateMutability": "nonpayable",
      "type": "function"
    }
  ],
  "bytecode": "0x60806040523480156200001157600080fd5b506040516200378b3803806200378b833981810160405281019062000037919062000875565b33600073ffffffffffffffffffffffffffffffffffffffff168173ffffffffffffffffffffffffffffffffffffffff1603620000ad5760006040517f1e4fbdf7000000000000000000000000000000000000000000000000000000008152600401620000a49190620008b8565b60405180910390fd5b620000be816200011960201b60201c565b5080600160006101000a81548173ffffffffffffffffffffffffffffffffffffffff021916908373ffffffffffffffffffffffffffffffffffffffff160217905550620001126005620001dd60201b60201c565b5062001161565b60008060009054906101000a900473ffffffffffffffffffffffffffffffffffffffff169050816000806101000a81548173ffffffffffffffffffffffffffffffffffffffff021916908373ffffffffffffffffffffffffffffffffffffffff1602179055508173ffffffffffffffffffffffffffffffffffffffff168173ffffffffffffffffffffffffffffffffffffffff167f8be0079c531659141344cd1fd0a4f28419497f9722a3daafe3b4186f6b6457e060405160405180910390a35050565b620001ed620003dd60201b60201c565b60005b81811015620003d95760005b82811015620003c257600062000218836200047f60201b60201c565b620002376001846200022b91906200090e565b620004e060201b60201c565b6040516020016200024a92919062000a13565b604051602081830303815290604052905060405180606001604052806040518060400160405280600581526020017f656d7074790000000000000000000000000000000000000000000000000000008152508152602001670de0b6b3a7640000620002bc6064620006de60201b60201c565b620002c8919062000a3f565b8152602001600073ffffffffffffffffffffffffffffffffffffffff16815250600282604051620002fa919062000a8a565b908152602001604051809103902060008201518160000190816200031f919062000d08565b506020820151816001015560408201518160020160006101000a81548173ffffffffffffffffffffffffffffffffffffffff021916908373ffffffffffffffffffffffffffffffffffffffff160217905550905050600381908060018154018082558091505060019003906000526020600020016000909190919091509081620003aa919062000d08565b50508080620003b99062000def565b915050620001fc565b508080620003d09062000def565b915050620001f0565b5050565b620003ed6200074360201b60201c565b73ffffffffffffffffffffffffffffffffffffffff16620004136200074b60201b60201c565b73ffffffffffffffffffffffffffffffffffffffff16146200047d576200043f6200074360201b60201c565b6040517f118cdaa7000000000000000000000000000000000000000000000000000000008152600401620004749190620008b8565b60405180910390fd5b565b6000601a8210620004c7576040517f08c379a0000000000000000000000000000000000000000000000000000000008152600401620004be9062000ec3565b60405180910390fd5b604182620004d691906200090e565b60f81b9050919050565b606060006064905060008167ffffffffffffffff81111562000507576200050662000aa3565b5b6040519080825280601f01601f1916602001820160405280156200053a5781602001600182028036833780820191505090505b50905060005b60008514620005d9576000600a866200055a919062000f14565b9050600a866200056b919062000f4c565b95508060306200057c91906200090e565b60f81b8383806200058d9062000def565b945081518110620005a357620005a262000f84565b5b60200101907effffffffffffffffffffffffffffffffffffffffffffffffffffffffffffff1916908160001a9053505062000540565b60008167ffffffffffffffff811115620005f857620005f762000aa3565b5b6040519080825280601f01601f1916602001820160405280156200062b5781602001600182028036833780820191505090505b50905060005b82811015620006d15783816001856200064b919062000fb3565b62000657919062000fb3565b815181106200066b576200066a62000f84565b5b602001015160f81c60f81b8282815181106200068c576200068b62000f84565b5b60200101907effffffffffffffffffffffffffffffffffffffffffffffffffffffffffffff1916908160001a9053508080620006c89062000def565b91505062000631565b5080945050505050919050565b6000600182434233620006f66200077460201b60201c565b6040516020016200070b949392919062001063565b6040516020818303038152906040528051906020012060001c62000730919062000f14565b6200073c91906200090e565b9050919050565b600033905090565b60008060009054906101000a900473ffffffffffffffffffffffffffffffffffffffff16905090565b600080600090505b600380549050811015620007f357600260038281548110620007a357620007a262000f84565b5b90600052602060002001604051620007bc919062001148565b90815260200160405180910390206001015482620007db91906200090e565b91508080620007ea9062000def565b9150506200077c565b5090565b600080fd5b600073ffffffffffffffffffffffffffffffffffffffff82169050919050565b60006200082982620007fc565b9050919050565b60006200083d826200081c565b9050919050565b6200084f8162000830565b81146200085b57600080fd5b50565b6000815190506200086f8162000844565b92915050565b6000602082840312156200088e576200088d620007f7565b5b60006200089e848285016200085e565b91505092915050565b620008b2816200081c565b82525050565b6000602082019050620008cf6000830184620008a7565b92915050565b6000819050919050565b7f4e487b7100000000000000000000000000000000000000000000000000000000600052601160045260246000fd5b60006200091b82620008d5565b91506200092883620008d5565b9250828201905080821115620009435762000942620008df565b5b92915050565b60007fff0000000000000000000000000000000000000000000000000000000000000082169050919050565b6000819050919050565b620009946200098e8262000949565b62000975565b82525050565b600081519050919050565b600081905092915050565b60005b83811015620009d0578082015181840152602081019050620009b3565b60008484015250505050565b6000620009e9826200099a565b620009f58185620009a5565b935062000a07818560208601620009b0565b80840191505092915050565b600062000a2182856200097f565b60018201915062000a338284620009dc565b91508190509392505050565b600062000a4c82620008d5565b915062000a5983620008d5565b925082820262000a6981620008d5565b9150828204841483151762000a835762000a82620008df565b5b5092915050565b600062000a988284620009dc565b915081905092915050565b7f4e487b7100000000000000000000000000000000000000000000000000000000600052604160045260246000fd5b7f4e487b7100000000000000000000000000000000000000000000000000000000600052602260045260246000fd5b6000600282049050600182168062000b1a57607f821691505b60208210810362000b305762000b2f62000ad2565b5b50919050565b60008190508160005260206000209050919050565b60006020601f8301049050919050565b600082821b905092915050565b60006008830262000b9a7fffffffffffffffffffffffffffffffffffffffffffffffffffffffffffffffff8262000b5b565b62000ba6868362000b5b565b95508019841693508086168417925050509392505050565b6000819050919050565b600062000be962000be362000bdd84620008d5565b62000bbe565b620008d5565b9050919050565b6000819050919050565b62000c058362000bc8565b62000c1d62000c148262000bf0565b84845462000b68565b825550505050565b600090565b62000c3462000c25565b62000c4181848462000bfa565b505050565b5b8181101562000c695762000c5d60008262000c2a565b60018101905062000c47565b5050565b601f82111562000cb85762000c828162000b36565b62000c8d8462000b4b565b8101602085101562000c9d578190505b62000cb562000cac8562000b4b565b83018262000c46565b50505b505050565b600082821c905092915050565b600062000cdd6000198460080262000cbd565b1980831691505092915050565b600062000cf8838362000cca565b9150826002028217905092915050565b62000d13826200099a565b67ffffffffffffffff81111562000d2f5762000d2e62000aa3565b5b62000d3b825462000b01565b62000d4882828562000c6d565b600060209050601f83116001811462000d80576000841562000d6b578287015190505b62000d77858262000cea565b86555062000de7565b601f19841662000d908662000b36565b60005b8281101562000dba5784890151825560018201915060208501945060208101905062000d93565b8683101562000dda578489015162000dd6601f89168262000cca565b8355505b6001600288020188555050505b505050505050565b600062000dfc82620008d5565b91507fffffffffffffffffffffffffffffffffffffffffffffffffffffffffffffffff820362000e315762000e30620008df565b5b600182019050919050565b600082825260208201905092915050565b7f496e646578206f7574206f662072616e676520666f7220616c7068616265742060008201527f636f6e76657273696f6e00000000000000000000000000000000000000000000602082015250565b600062000eab602a8362000e3c565b915062000eb88262000e4d565b604082019050919050565b6000602082019050818103600083015262000ede8162000e9c565b9050919050565b7f4e487b7100000000000000000000000000000000000000000000000000000000600052601260045260246000fd5b600062000f2182620008d5565b915062000f2e83620008d5565b92508262000f415762000f4062000ee5565b5b828206905092915050565b600062000f5982620008d5565b915062000f6683620008d5565b92508262000f795762000f7862000ee5565b5b828204905092915050565b7f4e487b7100000000000000000000000000000000000000000000000000000000600052603260045260246000fd5b600062000fc082620008d5565b915062000fcd83620008d5565b925082820390508181111562000fe85762000fe7620008df565b5b92915050565b6000819050919050565b6200100d6200100782620008d5565b62000fee565b82525050565b60008160601b9050919050565b60006200102d8262001013565b9050919050565b6000620010418262001020565b9050919050565b6200105d62001057826200081c565b62001034565b82525050565b600062001071828762000ff8565b60208201915062001083828662000ff8565b60208201915062001095828562001048565b601482019150620010a7828462000ff8565b60208201915081905095945050505050565b60008154620010c88162000b01565b620010d48186620009a5565b94506001821660008114620010f2576001811462001108576200113f565b60ff19831686528115158202860193506200113f565b620011138562000b36565b60005b83811015620011375781548189015260018201915060208101905062001116565b838801955050505b50505092915050565b6000620011568284620010b9565b915081905092915050565b61261a80620011716000396000f3fe608060405234801561001057600080fd5b50600436106100e95760003560e01c8063d79fd7171161008c578063f2fde38b11610066578063f2fde38b14610224578063f7c618c114610240578063fbde98ee1461025e578063fe4b84df1461028e576100e9565b8063d79fd717146101ce578063dd49756e146101ec578063ea4ad35d14610208576100e9565b8063315a095d116100c8578063315a095d1461015a57806346ac7cb014610176578063715018a6146101a65780638da5cb5b146101b0576100e9565b8062068c2e146100ee5780630e15561a146101205780632955d9141461013e575b600080fd5b610108600480360381019061010391906115a3565b6102aa565b604051610117939291906116c5565b60405180910390f35b610128610392565b6040516101359190611703565b60405180910390f35b6101586004803603810190610153919061171e565b61040a565b005b610174600480360381019061016f91906117c2565b610832565b005b610190600480360381019061018b91906117c2565b6109bc565b60405161019d91906117ef565b60405180910390f35b6101ae610a68565b005b6101b8610a7c565b6040516101c59190611811565b60405180910390f35b6101d6610aa5565b6040516101e39190611938565b60405180910390f35b610206600480360381019061020191906117c2565b610b7e565b005b610222600480360381019061021d919061171e565b610c2c565b005b61023e60048036038101906102399190611986565b610d47565b005b610248610dcd565b6040516102559190611a12565b60405180910390f35b610278600480360381019061027391906115a3565b610df3565b6040516102859190611703565b60405180910390f35b6102a860048036038101906102a391906117c2565b610e9c565b005b6002818051602081018201805184825260208301602085012081835280955050505050506000915090508060000180546102e390611a5c565b80601f016020809104026020016040519081016040528092919081815260200182805461030f90611a5c565b801561035c5780601f106103315761010080835404028352916020019161035c565b820191906000526020600020905b81548152906001019060200180831161033f57829003601f168201915b5050505050908060010154908060020160009054906101000a900473ffffffffffffffffffffffffffffffffffffffff16905083565b600080600090505b600380549050811015610406576002600382815481106103bd576103bc611a8d565b5b906000526020600020016040516103d49190611b5f565b908152602001604051809103902060010154826103f19190611ba5565b915080806103fe90611bd9565b91505061039a565b5090565b600060028360405161041c9190611c52565b9081526020016040518091039020600001805461043890611a5c565b90501161047a576040517f08c379a000000000000000000000000000000000000000000000000000000000815260040161047190611cdb565b60405180910390fd5b8060405160200161048b9190611c52565b604051602081830303815290604052805190602001206002836040516104b19190611c52565b90815260200160405180910390206000016040516020016104d29190611b5f565b6040516020818303038152906040528051906020012014610528576040517f08c379a000000000000000000000000000000000000000000000000000000000815260040161051f90611d47565b60405180910390fd5b600073ffffffffffffffffffffffffffffffffffffffff166002836040516105509190611c52565b908152602001604051809103902060020160009054906101000a900473ffffffffffffffffffffffffffffffffffffffff1673ffffffffffffffffffffffffffffffffffffffff16146105d8576040517f08c379a00000000000000000000000000000000000000000000000000000000081526004016105cf90611dd9565b60405180910390fd5b336002836040516105e99190611c52565b908152602001604051809103902060020160006101000a81548173ffffffffffffffffffffffffffffffffffffffff021916908373ffffffffffffffffffffffffffffffffffffffff160217905550600060028360405161064a9190611c52565b908152602001604051809103902060010154905080600160009054906101000a900473ffffffffffffffffffffffffffffffffffffffff1673ffffffffffffffffffffffffffffffffffffffff166370a08231306040518263ffffffff1660e01b81526004016106ba9190611811565b602060405180830381865afa1580156106d7573d6000803e3d6000fd5b505050506040513d601f19601f820116820180604052508101906106fb9190611e0e565b101561073c576040517f08c379a000000000000000000000000000000000000000000000000000000000815260040161073390611ead565b60405180910390fd5b600160009054906101000a900473ffffffffffffffffffffffffffffffffffffffff1673ffffffffffffffffffffffffffffffffffffffff1663a9059cbb33836040518363ffffffff1660e01b8152600401610799929190611ecd565b6020604051808303816000875af11580156107b8573d6000803e3d6000fd5b505050506040513d601f19601f820116820180604052508101906107dc9190611f2e565b503373ffffffffffffffffffffffffffffffffffffffff167febbaf23f10700f4ed3e028fc993794cb82872c071273d943858ea8f7342f91e88483604051610825929190611f5b565b60405180910390a2505050565b61083a611068565b80600160009054906101000a900473ffffffffffffffffffffffffffffffffffffffff1673ffffffffffffffffffffffffffffffffffffffff166370a08231306040518263ffffffff1660e01b81526004016108969190611811565b602060405180830381865afa1580156108b3573d6000803e3d6000fd5b505050506040513d601f19601f820116820180604052508101906108d79190611e0e565b1015610918576040517f08c379a000000000000000000000000000000000000000000000000000000000815260040161090f90611ffd565b60405180910390fd5b600160009054906101000a900473ffffffffffffffffffffffffffffffffffffffff1673ffffffffffffffffffffffffffffffffffffffff1663a9059cbb33836040518363ffffffff1660e01b8152600401610975929190611ecd565b6020604051808303816000875af1158015610994573d6000803e3d6000fd5b505050506040513d601f19601f820116820180604052508101906109b89190611f2e565b5050565b600381815481106109cc57600080fd5b9060005260206000200160009150905080546109e790611a5c565b80601f0160208091040260200160405190810160405280929190818152602001828054610a1390611a5c565b8015610a605780601f10610a3557610100808354040283529160200191610a60565b820191906000526020600020905b815481529060010190602001808311610a4357829003601f168201915b505050505081565b610a70611068565b610a7a60006110ef565b565b60008060009054906101000a900473ffffffffffffffffffffffffffffffffffffffff16905090565b60606003805480602002602001604051908101604052809291908181526020016000905b82821015610b75578382906000526020600020018054610ae890611a5c565b80601f0160208091040260200160405190810160405280929190818152602001828054610b1490611a5c565b8015610b615780601f10610b3657610100808354040283529160200191610b61565b820191906000526020600020905b815481529060010190602001808311610b4457829003601f168201915b505050505081526020019060010190610ac9565b50505050905090565b610b86611068565b600160009054906101000a900473ffffffffffffffffffffffffffffffffffffffff1673ffffffffffffffffffffffffffffffffffffffff166323b872dd3330846040518463ffffffff1660e01b8152600401610be59392919061201d565b6020604051808303816000875af1158015610c04573d6000803e3d6000fd5b505050506040513d601f19601f82011682018060405250810190610c289190611f2e565b5050565b610c34611068565b6000600283604051610c469190611c52565b90815260200160405180910390206000018054610c6290611a5c565b905014610ca4576040517f08c379a0000000000000000000000000000000000000000000000000000000008152600401610c9b906120a0565b60405180910390fd5b6000600283604051610cb69190611c52565b90815260200160405180910390206000018054610cd290611a5c565b905011610d14576040517f08c379a0000000000000000000000000000000000000000000000000000000008152600401610d0b90611cdb565b60405180910390fd5b80600283604051610d259190611c52565b90815260200160405180910390206000019081610d42919061224d565b505050565b610d4f611068565b600073ffffffffffffffffffffffffffffffffffffffff168173ffffffffffffffffffffffffffffffffffffffff1603610dc15760006040517f1e4fbdf7000000000000000000000000000000000000000000000000000000008152600401610db89190611811565b60405180910390fd5b610dca816110ef565b50565b600160009054906101000a900473ffffffffffffffffffffffffffffffffffffffff1681565b60008073ffffffffffffffffffffffffffffffffffffffff16600283604051610e1c9190611c52565b908152602001604051809103902060020160009054906101000a900473ffffffffffffffffffffffffffffffffffffffff1673ffffffffffffffffffffffffffffffffffffffff1614610e725760009050610e97565b600282604051610e829190611c52565b90815260200160405180910390206001015490505b919050565b610ea4611068565b60005b818110156110645760005b82811015611050576000610ec5836111b3565b610eda600184610ed59190611ba5565b61120f565b604051602001610eeb92919061236c565b604051602081830303815290604052905060405180606001604052806040518060400160405280600581526020017f656d7074790000000000000000000000000000000000000000000000000000008152508152602001670de0b6b3a7640000610f5560646113ea565b610f5f9190612394565b8152602001600073ffffffffffffffffffffffffffffffffffffffff16815250600282604051610f8f9190611c52565b90815260200160405180910390206000820151816000019081610fb2919061224d565b506020820151816001015560408201518160020160006101000a81548173ffffffffffffffffffffffffffffffffffffffff021916908373ffffffffffffffffffffffffffffffffffffffff16021790555090505060038190806001815401808255809150506001900390600052602060002001600090919091909150908161103b919061224d565b5050808061104890611bd9565b915050610eb2565b50808061105c90611bd9565b915050610ea7565b5050565b611070611441565b73ffffffffffffffffffffffffffffffffffffffff1661108e610a7c565b73ffffffffffffffffffffffffffffffffffffffff16146110ed576110b1611441565b6040517f118cdaa70000000000000000000000000000000000000000000000000000000081526004016110e49190611811565b60405180910390fd5b565b60008060009054906101000a900473ffffffffffffffffffffffffffffffffffffffff169050816000806101000a81548173ffffffffffffffffffffffffffffffffffffffff021916908373ffffffffffffffffffffffffffffffffffffffff1602179055508173ffffffffffffffffffffffffffffffffffffffff168173ffffffffffffffffffffffffffffffffffffffff167f8be0079c531659141344cd1fd0a4f28419497f9722a3daafe3b4186f6b6457e060405160405180910390a35050565b6000601a82106111f8576040517f08c379a00000000000000000000000000000000000000000000000000000000081526004016111ef90612448565b60405180910390fd5b6041826112059190611ba5565b60f81b9050919050565b606060006064905060008167ffffffffffffffff81111561123357611232611478565b5b6040519080825280601f01601f1916602001820160405280156112655781602001600182028036833780820191505090505b50905060005b600085146112f7576000600a866112829190612497565b9050600a8661129191906124c8565b95508060306112a09190611ba5565b60f81b8383806112af90611bd9565b9450815181106112c2576112c1611a8d565b5b60200101907effffffffffffffffffffffffffffffffffffffffffffffffffffffffffffff1916908160001a9053505061126b565b60008167ffffffffffffffff81111561131357611312611478565b5b6040519080825280601f01601f1916602001820160405280156113455781602001600182028036833780820191505090505b50905060005b828110156113dd57838160018561136291906124f9565b61136c91906124f9565b8151811061137d5761137c611a8d565b5b602001015160f81c60f81b82828151811061139b5761139a611a8d565b5b60200101907effffffffffffffffffffffffffffffffffffffffffffffffffffffffffffff1916908160001a90535080806113d590611bd9565b91505061134b565b5080945050505050919050565b60006001824342336113fa610392565b60405160200161140d9493929190612596565b6040516020818303038152906040528051906020012060001c6114309190612497565b61143a9190611ba5565b9050919050565b600033905090565b6000604051905090565b600080fd5b600080fd5b600080fd5b600080fd5b6000601f19601f8301169050919050565b7f4e487b7100000000000000000000000000000000000000000000000000000000600052604160045260246000fd5b6114b082611467565b810181811067ffffffffffffffff821117156114cf576114ce611478565b5b80604052505050565b60006114e2611449565b90506114ee82826114a7565b919050565b600067ffffffffffffffff82111561150e5761150d611478565b5b61151782611467565b9050602081019050919050565b82818337600083830152505050565b6000611546611541846114f3565b6114d8565b90508281526020810184848401111561156257611561611462565b5b61156d848285611524565b509392505050565b600082601f83011261158a5761158961145d565b5b813561159a848260208601611533565b91505092915050565b6000602082840312156115b9576115b8611453565b5b600082013567ffffffffffffffff8111156115d7576115d6611458565b5b6115e384828501611575565b91505092915050565b600081519050919050565b600082825260208201905092915050565b60005b8381101561162657808201518184015260208101905061160b565b60008484015250505050565b600061163d826115ec565b61164781856115f7565b9350611657818560208601611608565b61166081611467565b840191505092915050565b6000819050919050565b61167e8161166b565b82525050565b600073ffffffffffffffffffffffffffffffffffffffff82169050919050565b60006116af82611684565b9050919050565b6116bf816116a4565b82525050565b600060608201905081810360008301526116df8186611632565b90506116ee6020830185611675565b6116fb60408301846116b6565b949350505050565b60006020820190506117186000830184611675565b92915050565b6000806040838503121561173557611734611453565b5b600083013567ffffffffffffffff81111561175357611752611458565b5b61175f85828601611575565b925050602083013567ffffffffffffffff8111156117805761177f611458565b5b61178c85828601611575565b9150509250929050565b61179f8161166b565b81146117aa57600080fd5b50565b6000813590506117bc81611796565b92915050565b6000602082840312156117d8576117d7611453565b5b60006117e6848285016117ad565b91505092915050565b600060208201905081810360008301526118098184611632565b905092915050565b600060208201905061182660008301846116b6565b92915050565b600081519050919050565b600082825260208201905092915050565b6000819050602082019050919050565b600082825260208201905092915050565b6000611874826115ec565b61187e8185611858565b935061188e818560208601611608565b61189781611467565b840191505092915050565b60006118ae8383611869565b905092915050565b6000602082019050919050565b60006118ce8261182c565b6118d88185611837565b9350836020820285016118ea85611848565b8060005b85811015611926578484038952815161190785826118a2565b9450611912836118b6565b925060208a019950506001810190506118ee565b50829750879550505050505092915050565b6000602082019050818103600083015261195281846118c3565b905092915050565b611963816116a4565b811461196e57600080fd5b50565b6000813590506119808161195a565b92915050565b60006020828403121561199c5761199b611453565b5b60006119aa84828501611971565b91505092915050565b6000819050919050565b60006119d86119d36119ce84611684565b6119b3565b611684565b9050919050565b60006119ea826119bd565b9050919050565b60006119fc826119df565b9050919050565b611a0c816119f1565b82525050565b6000602082019050611a276000830184611a03565b92915050565b7f4e487b7100000000000000000000000000000000000000000000000000000000600052602260045260246000fd5b60006002820490506001821680611a7457607f821691505b602082108103611a8757611a86611a2d565b5b50919050565b7f4e487b7100000000000000000000000000000000000000000000000000000000600052603260045260246000fd5b600081905092915050565b60008190508160005260206000209050919050565b60008154611ae981611a5c565b611af38186611abc565b94506001821660008114611b0e5760018114611b2357611b56565b60ff1983168652811515820286019350611b56565b611b2c85611ac7565b60005b83811015611b4e57815481890152600182019150602081019050611b2f565b838801955050505b50505092915050565b6000611b6b8284611adc565b915081905092915050565b7f4e487b7100000000000000000000000000000000000000000000000000000000600052601160045260246000fd5b6000611bb08261166b565b9150611bbb8361166b565b9250828201905080821115611bd357611bd2611b76565b5b92915050565b6000611be48261166b565b91507fffffffffffffffffffffffffffffffffffffffffffffffffffffffffffffffff8203611c1657611c15611b76565b5b600182019050919050565b6000611c2c826115ec565b611c368185611abc565b9350611c46818560208601611608565b80840191505092915050565b6000611c5e8284611c21565b915081905092915050565b7f4a6f6253706f7420776974682070726f766964656420696420646f6573206e6f60008201527f7420657869737400000000000000000000000000000000000000000000000000602082015250565b6000611cc56027836115f7565b9150611cd082611c69565b604082019050919050565b60006020820190508181036000830152611cf481611cb8565b9050919050565b7f4a6f6253706f7420696420616e64205555494420646f206e6f74206d61746368600082015250565b6000611d316020836115f7565b9150611d3c82611cfb565b602082019050919050565b60006020820190508181036000830152611d6081611d24565b9050919050565b7f4a6f622061742074686973206a6f6253706f742068617320616c72656164792060008201527f6265656e20636f6c6c6563746564000000000000000000000000000000000000602082015250565b6000611dc3602e836115f7565b9150611dce82611d67565b604082019050919050565b60006020820190508181036000830152611df281611db6565b9050919050565b600081519050611e0881611796565b92915050565b600060208284031215611e2457611e23611453565b5b6000611e3284828501611df9565b91505092915050565b7f466163746f727920646f6573206e6f74206861766520656e6f7567682072657760008201527f61726420746f6b656e7300000000000000000000000000000000000000000000602082015250565b6000611e97602a836115f7565b9150611ea282611e3b565b604082019050919050565b60006020820190508181036000830152611ec681611e8a565b9050919050565b6000604082019050611ee260008301856116b6565b611eef6020830184611675565b9392505050565b60008115159050919050565b611f0b81611ef6565b8114611f1657600080fd5b50565b600081519050611f2881611f02565b92915050565b600060208284031215611f4457611f43611453565b5b6000611f5284828501611f19565b91505092915050565b60006040820190508181036000830152611f758185611632565b9050611f846020830184611675565b9392505050565b7f4e6f7420656e6f75676820746f6b656e7320696e2074686520636f6e7472616360008201527f7400000000000000000000000000000000000000000000000000000000000000602082015250565b6000611fe76021836115f7565b9150611ff282611f8b565b604082019050919050565b6000602082019050818103600083015261201681611fda565b9050919050565b600060608201905061203260008301866116b6565b61203f60208301856116b6565b61204c6040830184611675565b949350505050565b7f4a6f6253706f74205555494420616c7265616479207365740000000000000000600082015250565b600061208a6018836115f7565b915061209582612054565b602082019050919050565b600060208201905081810360008301526120b98161207d565b9050919050565b60006020601f8301049050919050565b600082821b905092915050565b60006008830261210d7fffffffffffffffffffffffffffffffffffffffffffffffffffffffffffffffff826120d0565b61211786836120d0565b95508019841693508086168417925050509392505050565b600061214a6121456121408461166b565b6119b3565b61166b565b9050919050565b6000819050919050565b6121648361212f565b61217861217082612151565b8484546120dd565b825550505050565b600090565b61218d612180565b61219881848461215b565b505050565b5b818110156121bc576121b1600082612185565b60018101905061219e565b5050565b601f821115612201576121d281611ac7565b6121db846120c0565b810160208510156121ea578190505b6121fe6121f6856120c0565b83018261219d565b50505b505050565b600082821c905092915050565b600061222460001984600802612206565b1980831691505092915050565b600061223d8383612213565b9150826002028217905092915050565b612256826115ec565b67ffffffffffffffff81111561226f5761226e611478565b5b6122798254611a5c565b6122848282856121c0565b600060209050601f8311600181146122b757600084156122a5578287015190505b6122af8582612231565b865550612317565b601f1984166122c586611ac7565b60005b828110156122ed578489015182556001820191506020850194506020810190506122c8565b8683101561230a5784890151612306601f891682612213565b8355505b6001600288020188555050505b505050505050565b60007fff0000000000000000000000000000000000000000000000000000000000000082169050919050565b6000819050919050565b6123666123618261231f565b61234b565b82525050565b60006123788285612355565b6001820191506123888284611c21565b91508190509392505050565b600061239f8261166b565b91506123aa8361166b565b92508282026123b88161166b565b915082820484148315176123cf576123ce611b76565b5b5092915050565b7f496e646578206f7574206f662072616e676520666f7220616c7068616265742060008201527f636f6e76657273696f6e00000000000000000000000000000000000000000000602082015250565b6000612432602a836115f7565b915061243d826123d6565b604082019050919050565b6000602082019050818103600083015261246181612425565b9050919050565b7f4e487b7100000000000000000000000000000000000000000000000000000000600052601260045260246000fd5b60006124a28261166b565b91506124ad8361166b565b9250826124bd576124bc612468565b5b828206905092915050565b60006124d38261166b565b91506124de8361166b565b9250826124ee576124ed612468565b5b828204905092915050565b60006125048261166b565b915061250f8361166b565b925082820390508181111561252757612526611b76565b5b92915050565b6000819050919050565b6125486125438261166b565b61252d565b82525050565b60008160601b9050919050565b60006125668261254e565b9050919050565b60006125788261255b565b9050919050565b61259061258b826116a4565b61256d565b82525050565b60006125a28287612537565b6020820191506125b28286612537565b6020820191506125c2828561257f565b6014820191506125d28284612537565b6020820191508190509594505050505056fea2646970667358221220f7edb53db2a70df1bb502a3c6ba4bfd0918718a43f3c1e3f06d27d9c1ee6752464736f6c63430008140033",
  "linkReferences": {},
  "deployedLinkReferences": {}
}