{
  "_format": "hh-sol-artifact-1",
  "contractName": "FactoryFrenzy",
  "sourceName": "contracts/FactoryFrenzy.sol",
  "abi": [
    {
      "inputs": [
        {
          "internalType": "contract IERC20",
          "name": "_rewardToken",
          "type": "address"
        }
      ],
      "stateMutability": "nonpayable",
      "type": "constructor"
    },
    {
      "anonymous": false,
      "inputs": [
        {
          "indexed": true,
          "internalType": "address",
          "name": "collector",
          "type": "address"
        },
        {
          "indexed": false,
          "internalType": "uint8",
          "name": "jobSpotId",
          "type": "uint8"
        },
        {
          "indexed": false,
          "internalType": "uint256",
          "name": "reward",
          "type": "uint256"
        }
      ],
      "name": "JobCollected",
      "type": "event"
    },
    {
      "inputs": [
        {
          "internalType": "uint8",
          "name": "jobSpotId",
          "type": "uint8"
        }
      ],
      "name": "collectJob",
      "outputs": [],
      "stateMutability": "nonpayable",
      "type": "function"
    },
    {
      "inputs": [
        {
          "internalType": "uint256",
          "name": "amount",
          "type": "uint256"
        }
      ],
      "name": "depositTokens",
      "outputs": [],
      "stateMutability": "nonpayable",
      "type": "function"
    },
    {
      "inputs": [],
      "name": "getAllJobSpots",
      "outputs": [
        {
          "internalType": "uint8[]",
          "name": "",
          "type": "uint8[]"
        }
      ],
      "stateMutability": "view",
      "type": "function"
    },
    {
      "inputs": [
        {
          "internalType": "uint8",
          "name": "jobSpotId",
          "type": "uint8"
        }
      ],
      "name": "getJobReward",
      "outputs": [
        {
          "internalType": "uint256",
          "name": "",
          "type": "uint256"
        }
      ],
      "stateMutability": "view",
      "type": "function"
    },
    {
      "inputs": [
        {
          "internalType": "uint8",
          "name": "size",
          "type": "uint8"
        }
      ],
      "name": "initialize",
      "outputs": [],
      "stateMutability": "nonpayable",
      "type": "function"
    },
    {
      "inputs": [
        {
          "internalType": "uint256",
          "name": "",
          "type": "uint256"
        }
      ],
      "name": "jobSpotIds",
      "outputs": [
        {
          "internalType": "uint8",
          "name": "",
          "type": "uint8"
        }
      ],
      "stateMutability": "view",
      "type": "function"
    },
    {
      "inputs": [
        {
          "internalType": "uint8",
          "name": "",
          "type": "uint8"
        }
      ],
      "name": "jobSpots",
      "outputs": [
        {
          "internalType": "uint256",
          "name": "reward",
          "type": "uint256"
        },
        {
          "internalType": "address",
          "name": "collector",
          "type": "address"
        }
      ],
      "stateMutability": "view",
      "type": "function"
    },
    {
      "inputs": [],
      "name": "rewardToken",
      "outputs": [
        {
          "internalType": "contract IERC20",
          "name": "",
          "type": "address"
        }
      ],
      "stateMutability": "view",
      "type": "function"
    },
    {
      "inputs": [],
      "name": "totalRewards",
      "outputs": [
        {
          "internalType": "uint256",
          "name": "totalReward",
          "type": "uint256"
        }
      ],
      "stateMutability": "view",
      "type": "function"
    },
    {
      "inputs": [
        {
          "internalType": "uint256",
          "name": "amount",
          "type": "uint256"
        }
      ],
      "name": "withdrawTokens",
      "outputs": [],
      "stateMutability": "nonpayable",
      "type": "function"
    }
  ],
  "bytecode": "0x60806040523480156200001157600080fd5b506040516200149e3803806200149e8339818101604052810190620000379190620000fc565b806000806101000a81548173ffffffffffffffffffffffffffffffffffffffff021916908373ffffffffffffffffffffffffffffffffffffffff160217905550506200012e565b600080fd5b600073ffffffffffffffffffffffffffffffffffffffff82169050919050565b6000620000b08262000083565b9050919050565b6000620000c482620000a3565b9050919050565b620000d681620000b7565b8114620000e257600080fd5b50565b600081519050620000f681620000cb565b92915050565b6000602082840312156200011557620001146200007e565b5b60006200012584828501620000e5565b91505092915050565b611360806200013e6000396000f3fe608060405234801561001057600080fd5b506004361061009d5760003560e01c806346ac7cb01161006657806346ac7cb0146101445780634bc848b414610174578063d79fd717146101a5578063dd49756e146101c3578063f7c618c1146101df5761009d565b806240ad25146100a25780630e15561a146100be57806316e3a771146100dc578063315a095d1461010c5780634351e6b614610128575b600080fd5b6100bc60048036038101906100b79190610b1f565b6101fd565b005b6100c66104f3565b6040516100d39190610b65565b60405180910390f35b6100f660048036038101906100f19190610b1f565b610582565b6040516101039190610b65565b60405180910390f35b61012660048036038101906101219190610bac565b610621565b005b610142600480360381019061013d9190610b1f565b61079f565b005b61015e60048036038101906101599190610bac565b6108cc565b60405161016b9190610be8565b60405180910390f35b61018e60048036038101906101899190610b1f565b610900565b60405161019c929190610c44565b60405180910390f35b6101ad610944565b6040516101ba9190610d2b565b60405180910390f35b6101dd60048036038101906101d89190610bac565b6109c2565b005b6101e7610a66565b6040516101f49190610dac565b60405180910390f35b600073ffffffffffffffffffffffffffffffffffffffff16600160008360ff1660ff16815260200190815260200160002060010160009054906101000a900473ffffffffffffffffffffffffffffffffffffffff1673ffffffffffffffffffffffffffffffffffffffff16146102a8576040517f08c379a000000000000000000000000000000000000000000000000000000000815260040161029f90610e4a565b60405180910390fd5b33600160008360ff1660ff16815260200190815260200160002060010160006101000a81548173ffffffffffffffffffffffffffffffffffffffff021916908373ffffffffffffffffffffffffffffffffffffffff1602179055506000600160008360ff1660ff1681526020019081526020016000206000015490508060008054906101000a900473ffffffffffffffffffffffffffffffffffffffff1673ffffffffffffffffffffffffffffffffffffffff166370a08231306040518263ffffffff1660e01b815260040161037e9190610e6a565b602060405180830381865afa15801561039b573d6000803e3d6000fd5b505050506040513d601f19601f820116820180604052508101906103bf9190610e9a565b1015610400576040517f08c379a00000000000000000000000000000000000000000000000000000000081526004016103f790610f39565b60405180910390fd5b60008054906101000a900473ffffffffffffffffffffffffffffffffffffffff1673ffffffffffffffffffffffffffffffffffffffff1663a9059cbb33836040518363ffffffff1660e01b815260040161045b929190610f59565b6020604051808303816000875af115801561047a573d6000803e3d6000fd5b505050506040513d601f19601f8201168201806040525081019061049e9190610fba565b503373ffffffffffffffffffffffffffffffffffffffff167f76b77ea8b0ad587a0157ae1ee6398f3c7f50f723c8211dd284c112ce39e1826d83836040516104e7929190610fe7565b60405180910390a25050565b600080600090505b6002805490508160ff16101561057e576001600060028360ff168154811061052657610525611010565b5b90600052602060002090602091828204019190069054906101000a900460ff1660ff1660ff1681526020019081526020016000206000015482610569919061106e565b91508080610576906110a2565b9150506104fb565b5090565b60008073ffffffffffffffffffffffffffffffffffffffff16600160008460ff1660ff16815260200190815260200160002060010160009054906101000a900473ffffffffffffffffffffffffffffffffffffffff1673ffffffffffffffffffffffffffffffffffffffff16146105fc576000905061061c565b600160008360ff1660ff1681526020019081526020016000206000015490505b919050565b8060008054906101000a900473ffffffffffffffffffffffffffffffffffffffff1673ffffffffffffffffffffffffffffffffffffffff166370a08231306040518263ffffffff1660e01b815260040161067b9190610e6a565b602060405180830381865afa158015610698573d6000803e3d6000fd5b505050506040513d601f19601f820116820180604052508101906106bc9190610e9a565b10156106fd576040517f08c379a00000000000000000000000000000000000000000000000000000000081526004016106f49061113d565b60405180910390fd5b60008054906101000a900473ffffffffffffffffffffffffffffffffffffffff1673ffffffffffffffffffffffffffffffffffffffff1663a9059cbb33836040518363ffffffff1660e01b8152600401610758929190610f59565b6020604051808303816000875af1158015610777573d6000803e3d6000fd5b505050506040513d601f19601f8201168201806040525081019061079b9190610fba565b5050565b60005b81826107ae919061115d565b60ff168160ff1610156108c8576040518060400160405280670de0b6b3a76400006107d96064610a8a565b6107e3919061119a565b8152602001600073ffffffffffffffffffffffffffffffffffffffff16815250600160008360ff1660ff1681526020019081526020016000206000820151816000015560208201518160010160006101000a81548173ffffffffffffffffffffffffffffffffffffffff021916908373ffffffffffffffffffffffffffffffffffffffff16021790555090505060028190806001815401808255809150506001900390600052602060002090602091828204019190069091909190916101000a81548160ff021916908360ff16021790555080806108c0906110a2565b9150506107a2565b5050565b600281815481106108dc57600080fd5b9060005260206000209060209182820401919006915054906101000a900460ff1681565b60016020528060005260406000206000915090508060000154908060010160009054906101000a900473ffffffffffffffffffffffffffffffffffffffff16905082565b606060028054806020026020016040519081016040528092919081815260200182805480156109b857602002820191906000526020600020906000905b82829054906101000a900460ff1660ff16815260200190600101906020826000010492830192600103820291508084116109815790505b5050505050905090565b60008054906101000a900473ffffffffffffffffffffffffffffffffffffffff1673ffffffffffffffffffffffffffffffffffffffff166323b872dd3330846040518463ffffffff1660e01b8152600401610a1f939291906111dc565b6020604051808303816000875af1158015610a3e573d6000803e3d6000fd5b505050506040513d601f19601f82011682018060405250810190610a629190610fba565b5050565b60008054906101000a900473ffffffffffffffffffffffffffffffffffffffff1681565b6000600182434233610a9a6104f3565b604051602001610aad949392919061127c565b6040516020818303038152906040528051906020012060001c610ad091906112f9565b610ada919061106e565b9050919050565b600080fd5b600060ff82169050919050565b610afc81610ae6565b8114610b0757600080fd5b50565b600081359050610b1981610af3565b92915050565b600060208284031215610b3557610b34610ae1565b5b6000610b4384828501610b0a565b91505092915050565b6000819050919050565b610b5f81610b4c565b82525050565b6000602082019050610b7a6000830184610b56565b92915050565b610b8981610b4c565b8114610b9457600080fd5b50565b600081359050610ba681610b80565b92915050565b600060208284031215610bc257610bc1610ae1565b5b6000610bd084828501610b97565b91505092915050565b610be281610ae6565b82525050565b6000602082019050610bfd6000830184610bd9565b92915050565b600073ffffffffffffffffffffffffffffffffffffffff82169050919050565b6000610c2e82610c03565b9050919050565b610c3e81610c23565b82525050565b6000604082019050610c596000830185610b56565b610c666020830184610c35565b9392505050565b600081519050919050565b600082825260208201905092915050565b6000819050602082019050919050565b610ca281610ae6565b82525050565b6000610cb48383610c99565b60208301905092915050565b6000602082019050919050565b6000610cd882610c6d565b610ce28185610c78565b9350610ced83610c89565b8060005b83811015610d1e578151610d058882610ca8565b9750610d1083610cc0565b925050600181019050610cf1565b5085935050505092915050565b60006020820190508181036000830152610d458184610ccd565b905092915050565b6000819050919050565b6000610d72610d6d610d6884610c03565b610d4d565b610c03565b9050919050565b6000610d8482610d57565b9050919050565b6000610d9682610d79565b9050919050565b610da681610d8b565b82525050565b6000602082019050610dc16000830184610d9d565b92915050565b600082825260208201905092915050565b7f4a6f622061742074686973206a6f6253706f742068617320616c72656164792060008201527f6265656e20636f6c6c6563746564000000000000000000000000000000000000602082015250565b6000610e34602e83610dc7565b9150610e3f82610dd8565b604082019050919050565b60006020820190508181036000830152610e6381610e27565b9050919050565b6000602082019050610e7f6000830184610c35565b92915050565b600081519050610e9481610b80565b92915050565b600060208284031215610eb057610eaf610ae1565b5b6000610ebe84828501610e85565b91505092915050565b7f466163746f727920646f6573206e6f74206861766520656e6f7567682072657760008201527f61726420746f6b656e7300000000000000000000000000000000000000000000602082015250565b6000610f23602a83610dc7565b9150610f2e82610ec7565b604082019050919050565b60006020820190508181036000830152610f5281610f16565b9050919050565b6000604082019050610f6e6000830185610c35565b610f7b6020830184610b56565b9392505050565b60008115159050919050565b610f9781610f82565b8114610fa257600080fd5b50565b600081519050610fb481610f8e565b92915050565b600060208284031215610fd057610fcf610ae1565b5b6000610fde84828501610fa5565b91505092915050565b6000604082019050610ffc6000830185610bd9565b6110096020830184610b56565b9392505050565b7f4e487b7100000000000000000000000000000000000000000000000000000000600052603260045260246000fd5b7f4e487b7100000000000000000000000000000000000000000000000000000000600052601160045260246000fd5b600061107982610b4c565b915061108483610b4c565b925082820190508082111561109c5761109b61103f565b5b92915050565b60006110ad82610ae6565b915060ff82036110c0576110bf61103f565b5b600182019050919050565b7f4e6f7420656e6f75676820746f6b656e7320696e2074686520636f6e7472616360008201527f7400000000000000000000000000000000000000000000000000000000000000602082015250565b6000611127602183610dc7565b9150611132826110cb565b604082019050919050565b600060208201905081810360008301526111568161111a565b9050919050565b600061116882610ae6565b915061117383610ae6565b925082820261118181610ae6565b91508082146111935761119261103f565b5b5092915050565b60006111a582610b4c565b91506111b083610b4c565b92508282026111be81610b4c565b915082820484148315176111d5576111d461103f565b5b5092915050565b60006060820190506111f16000830186610c35565b6111fe6020830185610c35565b61120b6040830184610b56565b949350505050565b6000819050919050565b61122e61122982610b4c565b611213565b82525050565b60008160601b9050919050565b600061124c82611234565b9050919050565b600061125e82611241565b9050919050565b61127661127182610c23565b611253565b82525050565b6000611288828761121d565b602082019150611298828661121d565b6020820191506112a88285611265565b6014820191506112b8828461121d565b60208201915081905095945050505050565b7f4e487b7100000000000000000000000000000000000000000000000000000000600052601260045260246000fd5b600061130482610b4c565b915061130f83610b4c565b92508261131f5761131e6112ca565b5b82820690509291505056fea2646970667358221220be8c33c94ce3919e91700fa4d3e00021b14277a6e86a98be8004d88011a59f6a64736f6c63430008140033",
  "linkReferences": {},
  "deployedLinkReferences": {}
}