{
  "_format": "hh-sol-artifact-1",
  "contractName": "FactoryFrenzy",
  "sourceName": "contracts/FactoryFrenzy.sol",
  "abi": [
    {
      "inputs": [],
      "stateMutability": "nonpayable",
      "type": "constructor"
    },
    {
      "inputs": [
        {
          "internalType": "address",
          "name": "sender",
          "type": "address"
        },
        {
          "internalType": "uint256",
          "name": "tokenId",
          "type": "uint256"
        },
        {
          "internalType": "address",
          "name": "owner",
          "type": "address"
        }
      ],
      "name": "ERC721IncorrectOwner",
      "type": "error"
    },
    {
      "inputs": [
        {
          "internalType": "address",
          "name": "operator",
          "type": "address"
        },
        {
          "internalType": "uint256",
          "name": "tokenId",
          "type": "uint256"
        }
      ],
      "name": "ERC721InsufficientApproval",
      "type": "error"
    },
    {
      "inputs": [
        {
          "internalType": "address",
          "name": "approver",
          "type": "address"
        }
      ],
      "name": "ERC721InvalidApprover",
      "type": "error"
    },
    {
      "inputs": [
        {
          "internalType": "address",
          "name": "operator",
          "type": "address"
        }
      ],
      "name": "ERC721InvalidOperator",
      "type": "error"
    },
    {
      "inputs": [
        {
          "internalType": "address",
          "name": "owner",
          "type": "address"
        }
      ],
      "name": "ERC721InvalidOwner",
      "type": "error"
    },
    {
      "inputs": [
        {
          "internalType": "address",
          "name": "receiver",
          "type": "address"
        }
      ],
      "name": "ERC721InvalidReceiver",
      "type": "error"
    },
    {
      "inputs": [
        {
          "internalType": "address",
          "name": "sender",
          "type": "address"
        }
      ],
      "name": "ERC721InvalidSender",
      "type": "error"
    },
    {
      "inputs": [
        {
          "internalType": "uint256",
          "name": "tokenId",
          "type": "uint256"
        }
      ],
      "name": "ERC721NonexistentToken",
      "type": "error"
    },
    {
      "inputs": [
        {
          "internalType": "address",
          "name": "owner",
          "type": "address"
        }
      ],
      "name": "OwnableInvalidOwner",
      "type": "error"
    },
    {
      "inputs": [
        {
          "internalType": "address",
          "name": "account",
          "type": "address"
        }
      ],
      "name": "OwnableUnauthorizedAccount",
      "type": "error"
    },
    {
      "anonymous": false,
      "inputs": [
        {
          "indexed": true,
          "internalType": "address",
          "name": "owner",
          "type": "address"
        },
        {
          "indexed": true,
          "internalType": "address",
          "name": "approved",
          "type": "address"
        },
        {
          "indexed": true,
          "internalType": "uint256",
          "name": "tokenId",
          "type": "uint256"
        }
      ],
      "name": "Approval",
      "type": "event"
    },
    {
      "anonymous": false,
      "inputs": [
        {
          "indexed": true,
          "internalType": "address",
          "name": "owner",
          "type": "address"
        },
        {
          "indexed": true,
          "internalType": "address",
          "name": "operator",
          "type": "address"
        },
        {
          "indexed": false,
          "internalType": "bool",
          "name": "approved",
          "type": "bool"
        }
      ],
      "name": "ApprovalForAll",
      "type": "event"
    },
    {
      "anonymous": false,
      "inputs": [
        {
          "indexed": true,
          "internalType": "address",
          "name": "previousOwner",
          "type": "address"
        },
        {
          "indexed": true,
          "internalType": "address",
          "name": "newOwner",
          "type": "address"
        }
      ],
      "name": "OwnershipTransferred",
      "type": "event"
    },
    {
      "anonymous": false,
      "inputs": [
        {
          "indexed": true,
          "internalType": "address",
          "name": "from",
          "type": "address"
        },
        {
          "indexed": true,
          "internalType": "address",
          "name": "to",
          "type": "address"
        },
        {
          "indexed": true,
          "internalType": "uint256",
          "name": "tokenId",
          "type": "uint256"
        }
      ],
      "name": "Transfer",
      "type": "event"
    },
    {
      "inputs": [
        {
          "internalType": "address",
          "name": "to",
          "type": "address"
        },
        {
          "internalType": "uint256",
          "name": "tokenId",
          "type": "uint256"
        }
      ],
      "name": "approve",
      "outputs": [],
      "stateMutability": "nonpayable",
      "type": "function"
    },
    {
      "inputs": [
        {
          "internalType": "string",
          "name": "jobSpotId",
          "type": "string"
        }
      ],
      "name": "availableJobs",
      "outputs": [
        {
          "internalType": "uint8",
          "name": "",
          "type": "uint8"
        }
      ],
      "stateMutability": "view",
      "type": "function"
    },
    {
      "inputs": [
        {
          "internalType": "address",
          "name": "owner",
          "type": "address"
        }
      ],
      "name": "balanceOf",
      "outputs": [
        {
          "internalType": "uint256",
          "name": "",
          "type": "uint256"
        }
      ],
      "stateMutability": "view",
      "type": "function"
    },
    {
      "inputs": [
        {
          "internalType": "string",
          "name": "jobSpotId",
          "type": "string"
        },
        {
          "internalType": "string",
          "name": "jobSpotUUID",
          "type": "string"
        }
      ],
      "name": "collectAllJobs",
      "outputs": [],
      "stateMutability": "nonpayable",
      "type": "function"
    },
    {
      "inputs": [
        {
          "internalType": "uint256",
          "name": "tokenId",
          "type": "uint256"
        }
      ],
      "name": "getApproved",
      "outputs": [
        {
          "internalType": "address",
          "name": "",
          "type": "address"
        }
      ],
      "stateMutability": "view",
      "type": "function"
    },
    {
      "inputs": [
        {
          "internalType": "uint256",
          "name": "size",
          "type": "uint256"
        }
      ],
      "name": "initialize",
      "outputs": [],
      "stateMutability": "nonpayable",
      "type": "function"
    },
    {
      "inputs": [
        {
          "internalType": "address",
          "name": "owner",
          "type": "address"
        },
        {
          "internalType": "address",
          "name": "operator",
          "type": "address"
        }
      ],
      "name": "isApprovedForAll",
      "outputs": [
        {
          "internalType": "bool",
          "name": "",
          "type": "bool"
        }
      ],
      "stateMutability": "view",
      "type": "function"
    },
    {
      "inputs": [
        {
          "internalType": "string",
          "name": "",
          "type": "string"
        }
      ],
      "name": "jobSpots",
      "outputs": [
        {
          "internalType": "string",
          "name": "UUID",
          "type": "string"
        },
        {
          "internalType": "uint8",
          "name": "jobsIssued",
          "type": "uint8"
        },
        {
          "internalType": "uint8",
          "name": "jobsCollected",
          "type": "uint8"
        },
        {
          "internalType": "address",
          "name": "collector",
          "type": "address"
        }
      ],
      "stateMutability": "view",
      "type": "function"
    },
    {
      "inputs": [],
      "name": "name",
      "outputs": [
        {
          "internalType": "string",
          "name": "",
          "type": "string"
        }
      ],
      "stateMutability": "view",
      "type": "function"
    },
    {
      "inputs": [],
      "name": "owner",
      "outputs": [
        {
          "internalType": "address",
          "name": "",
          "type": "address"
        }
      ],
      "stateMutability": "view",
      "type": "function"
    },
    {
      "inputs": [
        {
          "internalType": "uint256",
          "name": "tokenId",
          "type": "uint256"
        }
      ],
      "name": "ownerOf",
      "outputs": [
        {
          "internalType": "address",
          "name": "",
          "type": "address"
        }
      ],
      "stateMutability": "view",
      "type": "function"
    },
    {
      "inputs": [],
      "name": "renounceOwnership",
      "outputs": [],
      "stateMutability": "nonpayable",
      "type": "function"
    },
    {
      "inputs": [
        {
          "internalType": "address",
          "name": "from",
          "type": "address"
        },
        {
          "internalType": "address",
          "name": "to",
          "type": "address"
        },
        {
          "internalType": "uint256",
          "name": "tokenId",
          "type": "uint256"
        }
      ],
      "name": "safeTransferFrom",
      "outputs": [],
      "stateMutability": "nonpayable",
      "type": "function"
    },
    {
      "inputs": [
        {
          "internalType": "address",
          "name": "from",
          "type": "address"
        },
        {
          "internalType": "address",
          "name": "to",
          "type": "address"
        },
        {
          "internalType": "uint256",
          "name": "tokenId",
          "type": "uint256"
        },
        {
          "internalType": "bytes",
          "name": "data",
          "type": "bytes"
        }
      ],
      "name": "safeTransferFrom",
      "outputs": [],
      "stateMutability": "nonpayable",
      "type": "function"
    },
    {
      "inputs": [
        {
          "internalType": "address",
          "name": "operator",
          "type": "address"
        },
        {
          "internalType": "bool",
          "name": "approved",
          "type": "bool"
        }
      ],
      "name": "setApprovalForAll",
      "outputs": [],
      "stateMutability": "nonpayable",
      "type": "function"
    },
    {
      "inputs": [
        {
          "internalType": "string",
          "name": "jobSpotId",
          "type": "string"
        },
        {
          "internalType": "string",
          "name": "jobSpotUUID",
          "type": "string"
        }
      ],
      "name": "setJobSpotUUID",
      "outputs": [],
      "stateMutability": "nonpayable",
      "type": "function"
    },
    {
      "inputs": [
        {
          "internalType": "bytes4",
          "name": "interfaceId",
          "type": "bytes4"
        }
      ],
      "name": "supportsInterface",
      "outputs": [
        {
          "internalType": "bool",
          "name": "",
          "type": "bool"
        }
      ],
      "stateMutability": "view",
      "type": "function"
    },
    {
      "inputs": [],
      "name": "symbol",
      "outputs": [
        {
          "internalType": "string",
          "name": "",
          "type": "string"
        }
      ],
      "stateMutability": "view",
      "type": "function"
    },
    {
      "inputs": [
        {
          "internalType": "uint256",
          "name": "tokenId",
          "type": "uint256"
        }
      ],
      "name": "tokenURI",
      "outputs": [
        {
          "internalType": "string",
          "name": "",
          "type": "string"
        }
      ],
      "stateMutability": "view",
      "type": "function"
    },
    {
      "inputs": [],
      "name": "totalJobsIssued",
      "outputs": [
        {
          "internalType": "uint256",
          "name": "totalJobs",
          "type": "uint256"
        }
      ],
      "stateMutability": "view",
      "type": "function"
    },
    {
      "inputs": [],
      "name": "totalSupply",
      "outputs": [
        {
          "internalType": "uint256",
          "name": "",
          "type": "uint256"
        }
      ],
      "stateMutability": "view",
      "type": "function"
    },
    {
      "inputs": [
        {
          "internalType": "address",
          "name": "from",
          "type": "address"
        },
        {
          "internalType": "address",
          "name": "to",
          "type": "address"
        },
        {
          "internalType": "uint256",
          "name": "tokenId",
          "type": "uint256"
        }
      ],
      "name": "transferFrom",
      "outputs": [],
      "stateMutability": "nonpayable",
      "type": "function"
    },
    {
      "inputs": [
        {
          "internalType": "address",
          "name": "newOwner",
          "type": "address"
        }
      ],
      "name": "transferOwnership",
      "outputs": [],
      "stateMutability": "nonpayable",
      "type": "function"
    }
  ],
  "bytecode": "0x60806040523480156200001157600080fd5b50336040518060400160405280600481526020017f4a6f6273000000000000000000000000000000000000000000000000000000008152506040518060400160405280600381526020017f4a4f420000000000000000000000000000000000000000000000000000000000815250816000908162000090919062000b07565b508060019081620000a2919062000b07565b505050600073ffffffffffffffffffffffffffffffffffffffff168173ffffffffffffffffffffffffffffffffffffffff16036200011a5760006040517f1e4fbdf700000000000000000000000000000000000000000000000000000000815260040162000111919062000c33565b60405180910390fd5b6200012b816200014c60201b60201c565b5060016007819055506200014660056200021260201b60201c565b62001088565b6000600660009054906101000a900473ffffffffffffffffffffffffffffffffffffffff16905081600660006101000a81548173ffffffffffffffffffffffffffffffffffffffff021916908373ffffffffffffffffffffffffffffffffffffffff1602179055508173ffffffffffffffffffffffffffffffffffffffff168173ffffffffffffffffffffffffffffffffffffffff167f8be0079c531659141344cd1fd0a4f28419497f9722a3daafe3b4186f6b6457e060405160405180910390a35050565b620002226200040b60201b60201c565b60005b81811015620004075760005b82811015620003f05760006200024d83620004ad60201b60201c565b6200026c60018462000260919062000c7f565b6200050e60201b60201c565b6040516020016200027f92919062000d79565b604051602081830303815290604052905060405180608001604052806040518060400160405280600581526020017f656d7074790000000000000000000000000000000000000000000000000000008152508152602001620002e8600a6200070c60201b60201c565b60ff168152602001600060ff168152602001600073ffffffffffffffffffffffffffffffffffffffff1681525060088260405162000327919062000da5565b908152602001604051809103902060008201518160000190816200034c919062000b07565b5060208201518160010160006101000a81548160ff021916908360ff16021790555060408201518160010160016101000a81548160ff021916908360ff16021790555060608201518160010160026101000a81548173ffffffffffffffffffffffffffffffffffffffff021916908373ffffffffffffffffffffffffffffffffffffffff160217905550905050508080620003e79062000dbe565b91505062000231565b508080620003fe9062000dbe565b91505062000225565b5050565b6200041b6200077160201b60201c565b73ffffffffffffffffffffffffffffffffffffffff16620004416200077960201b60201c565b73ffffffffffffffffffffffffffffffffffffffff1614620004ab576200046d6200077160201b60201c565b6040517f118cdaa7000000000000000000000000000000000000000000000000000000008152600401620004a2919062000c33565b60405180910390fd5b565b6000601a8210620004f5576040517f08c379a0000000000000000000000000000000000000000000000000000000008152600401620004ec9062000e92565b60405180910390fd5b60418262000504919062000c7f565b60f81b9050919050565b606060006064905060008167ffffffffffffffff81111562000535576200053462000898565b5b6040519080825280601f01601f191660200182016040528015620005685781602001600182028036833780820191505090505b50905060005b6000851462000607576000600a8662000588919062000ee3565b9050600a8662000599919062000f1b565b9550806030620005aa919062000c7f565b60f81b838380620005bb9062000dbe565b945081518110620005d157620005d062000f53565b5b60200101907effffffffffffffffffffffffffffffffffffffffffffffffffffffffffffff1916908160001a905350506200056e565b60008167ffffffffffffffff81111562000626576200062562000898565b5b6040519080825280601f01601f191660200182016040528015620006595781602001600182028036833780820191505090505b50905060005b82811015620006ff57838160018562000679919062000f82565b62000685919062000f82565b8151811062000699576200069862000f53565b5b602001015160f81c60f81b828281518110620006ba57620006b962000f53565b5b60200101907effffffffffffffffffffffffffffffffffffffffffffffffffffffffffffff1916908160001a9053508080620006f69062000dbe565b9150506200065f565b5080945050505050919050565b600060018243423362000724620007a360201b60201c565b60405160200162000739949392919062001032565b6040516020818303038152906040528051906020012060001c6200075e919062000ee3565b6200076a919062000c7f565b9050919050565b600033905090565b6000600660009054906101000a900473ffffffffffffffffffffffffffffffffffffffff16905090565b600080600090505b6005811015620008895760005b600581101562000872576000620007d583620004ad60201b60201c565b620007f4600184620007e8919062000c7f565b6200050e60201b60201c565b6040516020016200080792919062000d79565b60405160208183030381529060405290506008816040516200082a919062000da5565b908152602001604051809103902060010160009054906101000a900460ff1660ff168462000859919062000c7f565b9350508080620008699062000dbe565b915050620007b8565b508080620008809062000dbe565b915050620007ab565b5090565b600081519050919050565b7f4e487b7100000000000000000000000000000000000000000000000000000000600052604160045260246000fd5b7f4e487b7100000000000000000000000000000000000000000000000000000000600052602260045260246000fd5b600060028204905060018216806200090f57607f821691505b602082108103620009255762000924620008c7565b5b50919050565b60008190508160005260206000209050919050565b60006020601f8301049050919050565b600082821b905092915050565b6000600883026200098f7fffffffffffffffffffffffffffffffffffffffffffffffffffffffffffffffff8262000950565b6200099b868362000950565b95508019841693508086168417925050509392505050565b6000819050919050565b6000819050919050565b6000620009e8620009e2620009dc84620009b3565b620009bd565b620009b3565b9050919050565b6000819050919050565b62000a0483620009c7565b62000a1c62000a1382620009ef565b8484546200095d565b825550505050565b600090565b62000a3362000a24565b62000a40818484620009f9565b505050565b5b8181101562000a685762000a5c60008262000a29565b60018101905062000a46565b5050565b601f82111562000ab75762000a81816200092b565b62000a8c8462000940565b8101602085101562000a9c578190505b62000ab462000aab8562000940565b83018262000a45565b50505b505050565b600082821c905092915050565b600062000adc6000198460080262000abc565b1980831691505092915050565b600062000af7838362000ac9565b9150826002028217905092915050565b62000b12826200088d565b67ffffffffffffffff81111562000b2e5762000b2d62000898565b5b62000b3a8254620008f6565b62000b4782828562000a6c565b600060209050601f83116001811462000b7f576000841562000b6a578287015190505b62000b76858262000ae9565b86555062000be6565b601f19841662000b8f866200092b565b60005b8281101562000bb95784890151825560018201915060208501945060208101905062000b92565b8683101562000bd9578489015162000bd5601f89168262000ac9565b8355505b6001600288020188555050505b505050505050565b600073ffffffffffffffffffffffffffffffffffffffff82169050919050565b600062000c1b8262000bee565b9050919050565b62000c2d8162000c0e565b82525050565b600060208201905062000c4a600083018462000c22565b92915050565b7f4e487b7100000000000000000000000000000000000000000000000000000000600052601160045260246000fd5b600062000c8c82620009b3565b915062000c9983620009b3565b925082820190508082111562000cb45762000cb362000c50565b5b92915050565b60007fff0000000000000000000000000000000000000000000000000000000000000082169050919050565b6000819050919050565b62000d0562000cff8262000cba565b62000ce6565b82525050565b600081905092915050565b60005b8381101562000d3657808201518184015260208101905062000d19565b60008484015250505050565b600062000d4f826200088d565b62000d5b818562000d0b565b935062000d6d81856020860162000d16565b80840191505092915050565b600062000d87828562000cf0565b60018201915062000d99828462000d42565b91508190509392505050565b600062000db3828462000d42565b915081905092915050565b600062000dcb82620009b3565b91507fffffffffffffffffffffffffffffffffffffffffffffffffffffffffffffffff820362000e005762000dff62000c50565b5b600182019050919050565b600082825260208201905092915050565b7f496e646578206f7574206f662072616e676520666f7220616c7068616265742060008201527f636f6e76657273696f6e00000000000000000000000000000000000000000000602082015250565b600062000e7a602a8362000e0b565b915062000e878262000e1c565b604082019050919050565b6000602082019050818103600083015262000ead8162000e6b565b9050919050565b7f4e487b7100000000000000000000000000000000000000000000000000000000600052601260045260246000fd5b600062000ef082620009b3565b915062000efd83620009b3565b92508262000f105762000f0f62000eb4565b5b828206905092915050565b600062000f2882620009b3565b915062000f3583620009b3565b92508262000f485762000f4762000eb4565b5b828204905092915050565b7f4e487b7100000000000000000000000000000000000000000000000000000000600052603260045260246000fd5b600062000f8f82620009b3565b915062000f9c83620009b3565b925082820390508181111562000fb75762000fb662000c50565b5b92915050565b6000819050919050565b62000fdc62000fd682620009b3565b62000fbd565b82525050565b60008160601b9050919050565b600062000ffc8262000fe2565b9050919050565b6000620010108262000fef565b9050919050565b6200102c620010268262000c0e565b62001003565b82525050565b600062001040828762000fc7565b60208201915062001052828662000fc7565b60208201915062001064828562001017565b60148201915062001076828462000fc7565b60208201915081905095945050505050565b6136eb80620010986000396000f3fe608060405234801561001057600080fd5b506004361061014c5760003560e01c806370a08231116100c3578063b88d4fde1161007c578063b88d4fde146103a0578063c87b56dd146103bc578063e985e9c5146103ec578063ea4ad35d1461041c578063f2fde38b14610438578063fe4b84df146104545761014c565b806370a08231146102f0578063715018a6146103205780638da5cb5b1461032a57806395d89b4114610348578063a22cb46514610366578063a3859614146103825761014c565b806318160ddd1161011557806318160ddd1461021e5780631c04b71d1461023c57806323b872dd1461026c57806342842e0e146102885780635625d009146102a45780636352211e146102c05761014c565b8062068c2e1461015157806301ffc9a71461018457806306fdde03146101b4578063081812fc146101d2578063095ea7b314610202575b600080fd5b61016b60048036038101906101669190612587565b610470565b60405161017b94939291906126ac565b60405180910390f35b61019e60048036038101906101999190612750565b610578565b6040516101ab9190612798565b60405180910390f35b6101bc61065a565b6040516101c991906127b3565b60405180910390f35b6101ec60048036038101906101e7919061280b565b6106ec565b6040516101f99190612838565b60405180910390f35b61021c6004803603810190610217919061287f565b610708565b005b61022661071e565b60405161023391906128ce565b60405180910390f35b61025660048036038101906102519190612587565b610734565b60405161026391906128e9565b60405180910390f35b61028660048036038101906102819190612904565b6107a5565b005b6102a2600480360381019061029d9190612904565b6108a7565b005b6102be60048036038101906102b99190612957565b6108c7565b005b6102da60048036038101906102d5919061280b565b610c11565b6040516102e79190612838565b60405180910390f35b61030a600480360381019061030591906129cf565b610c23565b60405161031791906128ce565b60405180910390f35b610328610cdd565b005b610332610cf1565b60405161033f9190612838565b60405180910390f35b610350610d1b565b60405161035d91906127b3565b60405180910390f35b610380600480360381019061037b9190612a28565b610dad565b005b61038a610dc3565b60405161039791906128ce565b60405180910390f35b6103ba60048036038101906103b59190612b09565b610e8d565b005b6103d660048036038101906103d1919061280b565b610eaa565b6040516103e391906127b3565b60405180910390f35b61040660048036038101906104019190612b8c565b610f13565b6040516104139190612798565b60405180910390f35b61043660048036038101906104319190612957565b610fa7565b005b610452600480360381019061044d91906129cf565b6110c2565b005b61046e6004803603810190610469919061280b565b611148565b005b6008818051602081018201805184825260208301602085012081835280955050505050506000915090508060000180546104a990612bfb565b80601f01602080910402602001604051908101604052809291908181526020018280546104d590612bfb565b80156105225780601f106104f757610100808354040283529160200191610522565b820191906000526020600020905b81548152906001019060200180831161050557829003601f168201915b5050505050908060010160009054906101000a900460ff16908060010160019054906101000a900460ff16908060010160029054906101000a900473ffffffffffffffffffffffffffffffffffffffff16905084565b60007f80ac58cd000000000000000000000000000000000000000000000000000000007bffffffffffffffffffffffffffffffffffffffffffffffffffffffff1916827bffffffffffffffffffffffffffffffffffffffffffffffffffffffff1916148061064357507f5b5e139f000000000000000000000000000000000000000000000000000000007bffffffffffffffffffffffffffffffffffffffffffffffffffffffff1916827bffffffffffffffffffffffffffffffffffffffffffffffffffffffff1916145b80610653575061065282611311565b5b9050919050565b60606000805461066990612bfb565b80601f016020809104026020016040519081016040528092919081815260200182805461069590612bfb565b80156106e25780601f106106b7576101008083540402835291602001916106e2565b820191906000526020600020905b8154815290600101906020018083116106c557829003601f168201915b5050505050905090565b60006106f78261137b565b5061070182611403565b9050919050565b61071a8282610715611440565b611448565b5050565b6000600160075461072f9190612c5b565b905090565b60006008826040516107469190612ccb565b908152602001604051809103902060010160019054906101000a900460ff166008836040516107759190612ccb565b908152602001604051809103902060010160009054906101000a900460ff1661079e9190612ce2565b9050919050565b600073ffffffffffffffffffffffffffffffffffffffff168273ffffffffffffffffffffffffffffffffffffffff16036108175760006040517f64a0ae9200000000000000000000000000000000000000000000000000000000815260040161080e9190612838565b60405180910390fd5b600061082b8383610826611440565b61145a565b90508373ffffffffffffffffffffffffffffffffffffffff168173ffffffffffffffffffffffffffffffffffffffff16146108a1578382826040517f64283d7b00000000000000000000000000000000000000000000000000000000815260040161089893929190612d17565b60405180910390fd5b50505050565b6108c283838360405180602001604052806000815250610e8d565b505050565b60006008836040516108d99190612ccb565b908152602001604051809103902060000180546108f590612bfb565b905011610937576040517f08c379a000000000000000000000000000000000000000000000000000000000815260040161092e90612dc0565b60405180910390fd5b806040516020016109489190612ccb565b6040516020818303038152906040528051906020012060088360405161096e9190612ccb565b908152602001604051809103902060000160405160200161098f9190612e78565b60405160208183030381529060405280519060200120146109e5576040517f08c379a00000000000000000000000000000000000000000000000000000000081526004016109dc90612edb565b60405180910390fd5b6008826040516109f59190612ccb565b908152602001604051809103902060010160009054906101000a900460ff1660ff16600883604051610a279190612ccb565b908152602001604051809103902060010160019054906101000a900460ff1660ff1610610a89576040517f08c379a0000000000000000000000000000000000000000000000000000000008152600401610a8090612f6d565b60405180910390fd5b33600883604051610a9a9190612ccb565b908152602001604051809103902060010160026101000a81548173ffffffffffffffffffffffffffffffffffffffff021916908373ffffffffffffffffffffffffffffffffffffffff1602179055506000600883604051610afb9190612ccb565b908152602001604051809103902060010160019054906101000a900460ff16600884604051610b2a9190612ccb565b908152602001604051809103902060010160009054906101000a900460ff16610b539190612ce2565b905060005b8160ff168160ff161015610ba3576000600754905060076000815480929190610b8090612f8d565b9190505550610b8f3382611674565b508080610b9b90612fd5565b915050610b58565b50600883604051610bb49190612ccb565b908152602001604051809103902060010160009054906101000a900460ff16600884604051610be39190612ccb565b908152602001604051809103902060010160016101000a81548160ff021916908360ff160217905550505050565b6000610c1c8261137b565b9050919050565b60008073ffffffffffffffffffffffffffffffffffffffff168273ffffffffffffffffffffffffffffffffffffffff1603610c965760006040517f89c62b64000000000000000000000000000000000000000000000000000000008152600401610c8d9190612838565b60405180910390fd5b600360008373ffffffffffffffffffffffffffffffffffffffff1673ffffffffffffffffffffffffffffffffffffffff168152602001908152602001600020549050919050565b610ce561176d565b610cef60006117f4565b565b6000600660009054906101000a900473ffffffffffffffffffffffffffffffffffffffff16905090565b606060018054610d2a90612bfb565b80601f0160208091040260200160405190810160405280929190818152602001828054610d5690612bfb565b8015610da35780601f10610d7857610100808354040283529160200191610da3565b820191906000526020600020905b815481529060010190602001808311610d8657829003601f168201915b5050505050905090565b610dbf610db8611440565b83836118ba565b5050565b600080600090505b6005811015610e895760005b6005811015610e75576000610deb83611a29565b610e00600184610dfb9190612ffe565b611a85565b604051602001610e1192919061307f565b6040516020818303038152906040529050600881604051610e329190612ccb565b908152602001604051809103902060010160009054906101000a900460ff1660ff1684610e5f9190612ffe565b9350508080610e6d90612f8d565b915050610dd7565b508080610e8190612f8d565b915050610dcb565b5090565b610e988484846107a5565b610ea484848484611c60565b50505050565b6060610eb58261137b565b506000610ec0611e17565b90506000815111610ee05760405180602001604052806000815250610f0b565b80610eea84611e2e565b604051602001610efb9291906130a7565b6040516020818303038152906040525b915050919050565b6000600560008473ffffffffffffffffffffffffffffffffffffffff1673ffffffffffffffffffffffffffffffffffffffff16815260200190815260200160002060008373ffffffffffffffffffffffffffffffffffffffff1673ffffffffffffffffffffffffffffffffffffffff16815260200190815260200160002060009054906101000a900460ff16905092915050565b610faf61176d565b6000600883604051610fc19190612ccb565b90815260200160405180910390206000018054610fdd90612bfb565b90501461101f576040517f08c379a000000000000000000000000000000000000000000000000000000000815260040161101690613117565b60405180910390fd5b60006008836040516110319190612ccb565b9081526020016040518091039020600001805461104d90612bfb565b90501161108f576040517f08c379a000000000000000000000000000000000000000000000000000000000815260040161108690612dc0565b60405180910390fd5b806008836040516110a09190612ccb565b908152602001604051809103902060000190816110bd91906132ce565b505050565b6110ca61176d565b600073ffffffffffffffffffffffffffffffffffffffff168173ffffffffffffffffffffffffffffffffffffffff160361113c5760006040517f1e4fbdf70000000000000000000000000000000000000000000000000000000081526004016111339190612838565b60405180910390fd5b611145816117f4565b50565b61115061176d565b60005b8181101561130d5760005b828110156112f957600061117183611a29565b6111866001846111819190612ffe565b611a85565b60405160200161119792919061307f565b604051602081830303815290604052905060405180608001604052806040518060400160405280600581526020017f656d70747900000000000000000000000000000000000000000000000000000081525081526020016111f8600a611efc565b60ff168152602001600060ff168152602001600073ffffffffffffffffffffffffffffffffffffffff168152506008826040516112359190612ccb565b9081526020016040518091039020600082015181600001908161125891906132ce565b5060208201518160010160006101000a81548160ff021916908360ff16021790555060408201518160010160016101000a81548160ff021916908360ff16021790555060608201518160010160026101000a81548173ffffffffffffffffffffffffffffffffffffffff021916908373ffffffffffffffffffffffffffffffffffffffff1602179055509050505080806112f190612f8d565b91505061115e565b50808061130590612f8d565b915050611153565b5050565b60007f01ffc9a7000000000000000000000000000000000000000000000000000000007bffffffffffffffffffffffffffffffffffffffffffffffffffffffff1916827bffffffffffffffffffffffffffffffffffffffffffffffffffffffff1916149050919050565b60008061138783611f53565b9050600073ffffffffffffffffffffffffffffffffffffffff168173ffffffffffffffffffffffffffffffffffffffff16036113fa57826040517f7e2732890000000000000000000000000000000000000000000000000000000081526004016113f191906128ce565b60405180910390fd5b80915050919050565b60006004600083815260200190815260200160002060009054906101000a900473ffffffffffffffffffffffffffffffffffffffff169050919050565b600033905090565b6114558383836001611f90565b505050565b60008061146684611f53565b9050600073ffffffffffffffffffffffffffffffffffffffff168373ffffffffffffffffffffffffffffffffffffffff16146114a8576114a7818486612155565b5b600073ffffffffffffffffffffffffffffffffffffffff168173ffffffffffffffffffffffffffffffffffffffff1614611539576114ea600085600080611f90565b6001600360008373ffffffffffffffffffffffffffffffffffffffff1673ffffffffffffffffffffffffffffffffffffffff168152602001908152602001600020600082825403925050819055505b600073ffffffffffffffffffffffffffffffffffffffff168573ffffffffffffffffffffffffffffffffffffffff16146115bc576001600360008773ffffffffffffffffffffffffffffffffffffffff1673ffffffffffffffffffffffffffffffffffffffff168152602001908152602001600020600082825401925050819055505b846002600086815260200190815260200160002060006101000a81548173ffffffffffffffffffffffffffffffffffffffff021916908373ffffffffffffffffffffffffffffffffffffffff160217905550838573ffffffffffffffffffffffffffffffffffffffff168273ffffffffffffffffffffffffffffffffffffffff167fddf252ad1be2c89b69c2b068fc378daa952ba7f163c4a11628f55a4df523b3ef60405160405180910390a4809150509392505050565b600073ffffffffffffffffffffffffffffffffffffffff168273ffffffffffffffffffffffffffffffffffffffff16036116e65760006040517f64a0ae920000000000000000000000000000000000000000000000000000000081526004016116dd9190612838565b60405180910390fd5b60006116f48383600061145a565b9050600073ffffffffffffffffffffffffffffffffffffffff168173ffffffffffffffffffffffffffffffffffffffff16146117685760006040517f73c6ac6e00000000000000000000000000000000000000000000000000000000815260040161175f9190612838565b60405180910390fd5b505050565b611775611440565b73ffffffffffffffffffffffffffffffffffffffff16611793610cf1565b73ffffffffffffffffffffffffffffffffffffffff16146117f2576117b6611440565b6040517f118cdaa70000000000000000000000000000000000000000000000000000000081526004016117e99190612838565b60405180910390fd5b565b6000600660009054906101000a900473ffffffffffffffffffffffffffffffffffffffff16905081600660006101000a81548173ffffffffffffffffffffffffffffffffffffffff021916908373ffffffffffffffffffffffffffffffffffffffff1602179055508173ffffffffffffffffffffffffffffffffffffffff168173ffffffffffffffffffffffffffffffffffffffff167f8be0079c531659141344cd1fd0a4f28419497f9722a3daafe3b4186f6b6457e060405160405180910390a35050565b600073ffffffffffffffffffffffffffffffffffffffff168273ffffffffffffffffffffffffffffffffffffffff160361192b57816040517f5b08ba180000000000000000000000000000000000000000000000000000000081526004016119229190612838565b60405180910390fd5b80600560008573ffffffffffffffffffffffffffffffffffffffff1673ffffffffffffffffffffffffffffffffffffffff16815260200190815260200160002060008473ffffffffffffffffffffffffffffffffffffffff1673ffffffffffffffffffffffffffffffffffffffff16815260200190815260200160002060006101000a81548160ff0219169083151502179055508173ffffffffffffffffffffffffffffffffffffffff168373ffffffffffffffffffffffffffffffffffffffff167f17307eab39ab6107e8899845ad3d59bd9653f200f220920489ca2b5937696c3183604051611a1c9190612798565b60405180910390a3505050565b6000601a8210611a6e576040517f08c379a0000000000000000000000000000000000000000000000000000000008152600401611a6590613412565b60405180910390fd5b604182611a7b9190612ffe565b60f81b9050919050565b606060006064905060008167ffffffffffffffff811115611aa957611aa861245c565b5b6040519080825280601f01601f191660200182016040528015611adb5781602001600182028036833780820191505090505b50905060005b60008514611b6d576000600a86611af89190613461565b9050600a86611b079190613492565b9550806030611b169190612ffe565b60f81b838380611b2590612f8d565b945081518110611b3857611b376134c3565b5b60200101907effffffffffffffffffffffffffffffffffffffffffffffffffffffffffffff1916908160001a90535050611ae1565b60008167ffffffffffffffff811115611b8957611b8861245c565b5b6040519080825280601f01601f191660200182016040528015611bbb5781602001600182028036833780820191505090505b50905060005b82811015611c53578381600185611bd89190612c5b565b611be29190612c5b565b81518110611bf357611bf26134c3565b5b602001015160f81c60f81b828281518110611c1157611c106134c3565b5b60200101907effffffffffffffffffffffffffffffffffffffffffffffffffffffffffffff1916908160001a9053508080611c4b90612f8d565b915050611bc1565b5080945050505050919050565b60008373ffffffffffffffffffffffffffffffffffffffff163b1115611e11578273ffffffffffffffffffffffffffffffffffffffff1663150b7a02611ca4611440565b8685856040518563ffffffff1660e01b8152600401611cc69493929190613547565b6020604051808303816000875af1925050508015611d0257506040513d601f19601f82011682018060405250810190611cff91906135a8565b60015b611d86573d8060008114611d32576040519150601f19603f3d011682016040523d82523d6000602084013e611d37565b606091505b506000815103611d7e57836040517f64a0ae92000000000000000000000000000000000000000000000000000000008152600401611d759190612838565b60405180910390fd5b805181602001fd5b63150b7a0260e01b7bffffffffffffffffffffffffffffffffffffffffffffffffffffffff1916817bffffffffffffffffffffffffffffffffffffffffffffffffffffffff191614611e0f57836040517f64a0ae92000000000000000000000000000000000000000000000000000000008152600401611e069190612838565b60405180910390fd5b505b50505050565b606060405180602001604052806000815250905090565b606060006001611e3d84612219565b01905060008167ffffffffffffffff811115611e5c57611e5b61245c565b5b6040519080825280601f01601f191660200182016040528015611e8e5781602001600182028036833780820191505090505b509050600082602001820190505b600115611ef1578080600190039150507f3031323334353637383961626364656600000000000000000000000000000000600a86061a8153600a8581611ee557611ee4613432565b5b04945060008503611e9c575b819350505050919050565b6000600182434233611f0c610dc3565b604051602001611f1f949392919061363e565b6040516020818303038152906040528051906020012060001c611f429190613461565b611f4c9190612ffe565b9050919050565b60006002600083815260200190815260200160002060009054906101000a900473ffffffffffffffffffffffffffffffffffffffff169050919050565b8080611fc95750600073ffffffffffffffffffffffffffffffffffffffff168273ffffffffffffffffffffffffffffffffffffffff1614155b156120fd576000611fd98461137b565b9050600073ffffffffffffffffffffffffffffffffffffffff168373ffffffffffffffffffffffffffffffffffffffff161415801561204457508273ffffffffffffffffffffffffffffffffffffffff168173ffffffffffffffffffffffffffffffffffffffff1614155b801561205757506120558184610f13565b155b1561209957826040517fa9fbf51f0000000000000000000000000000000000000000000000000000000081526004016120909190612838565b60405180910390fd5b81156120fb57838573ffffffffffffffffffffffffffffffffffffffff168273ffffffffffffffffffffffffffffffffffffffff167f8c5be1e5ebec7d5bd14f71427d1e84f3dd0314c0f7b2291e5b200ac8c7c3b92560405160405180910390a45b505b836004600085815260200190815260200160002060006101000a81548173ffffffffffffffffffffffffffffffffffffffff021916908373ffffffffffffffffffffffffffffffffffffffff16021790555050505050565b61216083838361236c565b61221457600073ffffffffffffffffffffffffffffffffffffffff168373ffffffffffffffffffffffffffffffffffffffff16036121d557806040517f7e2732890000000000000000000000000000000000000000000000000000000081526004016121cc91906128ce565b60405180910390fd5b81816040517f177e802f00000000000000000000000000000000000000000000000000000000815260040161220b92919061368c565b60405180910390fd5b505050565b600080600090507a184f03e93ff9f4daa797ed6e38ed64bf6a1f0100000000000000008310612277577a184f03e93ff9f4daa797ed6e38ed64bf6a1f010000000000000000838161226d5761226c613432565b5b0492506040810190505b6d04ee2d6d415b85acef810000000083106122b4576d04ee2d6d415b85acef810000000083816122aa576122a9613432565b5b0492506020810190505b662386f26fc1000083106122e357662386f26fc1000083816122d9576122d8613432565b5b0492506010810190505b6305f5e100831061230c576305f5e100838161230257612301613432565b5b0492506008810190505b612710831061233157612710838161232757612326613432565b5b0492506004810190505b60648310612354576064838161234a57612349613432565b5b0492506002810190505b600a8310612363576001810190505b80915050919050565b60008073ffffffffffffffffffffffffffffffffffffffff168373ffffffffffffffffffffffffffffffffffffffff161415801561242457508273ffffffffffffffffffffffffffffffffffffffff168473ffffffffffffffffffffffffffffffffffffffff1614806123e557506123e48484610f13565b5b8061242357508273ffffffffffffffffffffffffffffffffffffffff1661240b83611403565b73ffffffffffffffffffffffffffffffffffffffff16145b5b90509392505050565b6000604051905090565b600080fd5b600080fd5b600080fd5b600080fd5b6000601f19601f8301169050919050565b7f4e487b7100000000000000000000000000000000000000000000000000000000600052604160045260246000fd5b6124948261244b565b810181811067ffffffffffffffff821117156124b3576124b261245c565b5b80604052505050565b60006124c661242d565b90506124d2828261248b565b919050565b600067ffffffffffffffff8211156124f2576124f161245c565b5b6124fb8261244b565b9050602081019050919050565b82818337600083830152505050565b600061252a612525846124d7565b6124bc565b90508281526020810184848401111561254657612545612446565b5b612551848285612508565b509392505050565b600082601f83011261256e5761256d612441565b5b813561257e848260208601612517565b91505092915050565b60006020828403121561259d5761259c612437565b5b600082013567ffffffffffffffff8111156125bb576125ba61243c565b5b6125c784828501612559565b91505092915050565b600081519050919050565b600082825260208201905092915050565b60005b8381101561260a5780820151818401526020810190506125ef565b60008484015250505050565b6000612621826125d0565b61262b81856125db565b935061263b8185602086016125ec565b6126448161244b565b840191505092915050565b600060ff82169050919050565b6126658161264f565b82525050565b600073ffffffffffffffffffffffffffffffffffffffff82169050919050565b60006126968261266b565b9050919050565b6126a68161268b565b82525050565b600060808201905081810360008301526126c68187612616565b90506126d5602083018661265c565b6126e2604083018561265c565b6126ef606083018461269d565b95945050505050565b60007fffffffff0000000000000000000000000000000000000000000000000000000082169050919050565b61272d816126f8565b811461273857600080fd5b50565b60008135905061274a81612724565b92915050565b60006020828403121561276657612765612437565b5b60006127748482850161273b565b91505092915050565b60008115159050919050565b6127928161277d565b82525050565b60006020820190506127ad6000830184612789565b92915050565b600060208201905081810360008301526127cd8184612616565b905092915050565b6000819050919050565b6127e8816127d5565b81146127f357600080fd5b50565b600081359050612805816127df565b92915050565b60006020828403121561282157612820612437565b5b600061282f848285016127f6565b91505092915050565b600060208201905061284d600083018461269d565b92915050565b61285c8161268b565b811461286757600080fd5b50565b60008135905061287981612853565b92915050565b6000806040838503121561289657612895612437565b5b60006128a48582860161286a565b92505060206128b5858286016127f6565b9150509250929050565b6128c8816127d5565b82525050565b60006020820190506128e360008301846128bf565b92915050565b60006020820190506128fe600083018461265c565b92915050565b60008060006060848603121561291d5761291c612437565b5b600061292b8682870161286a565b935050602061293c8682870161286a565b925050604061294d868287016127f6565b9150509250925092565b6000806040838503121561296e5761296d612437565b5b600083013567ffffffffffffffff81111561298c5761298b61243c565b5b61299885828601612559565b925050602083013567ffffffffffffffff8111156129b9576129b861243c565b5b6129c585828601612559565b9150509250929050565b6000602082840312156129e5576129e4612437565b5b60006129f38482850161286a565b91505092915050565b612a058161277d565b8114612a1057600080fd5b50565b600081359050612a22816129fc565b92915050565b60008060408385031215612a3f57612a3e612437565b5b6000612a4d8582860161286a565b9250506020612a5e85828601612a13565b9150509250929050565b600067ffffffffffffffff821115612a8357612a8261245c565b5b612a8c8261244b565b9050602081019050919050565b6000612aac612aa784612a68565b6124bc565b905082815260208101848484011115612ac857612ac7612446565b5b612ad3848285612508565b509392505050565b600082601f830112612af057612aef612441565b5b8135612b00848260208601612a99565b91505092915050565b60008060008060808587031215612b2357612b22612437565b5b6000612b318782880161286a565b9450506020612b428782880161286a565b9350506040612b53878288016127f6565b925050606085013567ffffffffffffffff811115612b7457612b7361243c565b5b612b8087828801612adb565b91505092959194509250565b60008060408385031215612ba357612ba2612437565b5b6000612bb18582860161286a565b9250506020612bc28582860161286a565b9150509250929050565b7f4e487b7100000000000000000000000000000000000000000000000000000000600052602260045260246000fd5b60006002820490506001821680612c1357607f821691505b602082108103612c2657612c25612bcc565b5b50919050565b7f4e487b7100000000000000000000000000000000000000000000000000000000600052601160045260246000fd5b6000612c66826127d5565b9150612c71836127d5565b9250828203905081811115612c8957612c88612c2c565b5b92915050565b600081905092915050565b6000612ca5826125d0565b612caf8185612c8f565b9350612cbf8185602086016125ec565b80840191505092915050565b6000612cd78284612c9a565b915081905092915050565b6000612ced8261264f565b9150612cf88361264f565b9250828203905060ff811115612d1157612d10612c2c565b5b92915050565b6000606082019050612d2c600083018661269d565b612d3960208301856128bf565b612d46604083018461269d565b949350505050565b7f4a6f6253706f7420776974682070726f766964656420696420646f6573206e6f60008201527f7420657869737400000000000000000000000000000000000000000000000000602082015250565b6000612daa6027836125db565b9150612db582612d4e565b604082019050919050565b60006020820190508181036000830152612dd981612d9d565b9050919050565b60008190508160005260206000209050919050565b60008154612e0281612bfb565b612e0c8186612c8f565b94506001821660008114612e275760018114612e3c57612e6f565b60ff1983168652811515820286019350612e6f565b612e4585612de0565b60005b83811015612e6757815481890152600182019150602081019050612e48565b838801955050505b50505092915050565b6000612e848284612df5565b915081905092915050565b7f4a6f6253706f7420696420616e64205555494420646f206e6f74206d61746368600082015250565b6000612ec56020836125db565b9150612ed082612e8f565b602082019050919050565b60006020820190508181036000830152612ef481612eb8565b9050919050565b7f416c6c206a6f62732061742074686973206a6f6253706f74206861766520616c60008201527f7265616479206265656e20636f6c6c6563746564000000000000000000000000602082015250565b6000612f576034836125db565b9150612f6282612efb565b604082019050919050565b60006020820190508181036000830152612f8681612f4a565b9050919050565b6000612f98826127d5565b91507fffffffffffffffffffffffffffffffffffffffffffffffffffffffffffffffff8203612fca57612fc9612c2c565b5b600182019050919050565b6000612fe08261264f565b915060ff8203612ff357612ff2612c2c565b5b600182019050919050565b6000613009826127d5565b9150613014836127d5565b925082820190508082111561302c5761302b612c2c565b5b92915050565b60007fff0000000000000000000000000000000000000000000000000000000000000082169050919050565b6000819050919050565b61307961307482613032565b61305e565b82525050565b600061308b8285613068565b60018201915061309b8284612c9a565b91508190509392505050565b60006130b38285612c9a565b91506130bf8284612c9a565b91508190509392505050565b7f4a6f6253706f74205555494420616c7265616479207365740000000000000000600082015250565b60006131016018836125db565b915061310c826130cb565b602082019050919050565b60006020820190508181036000830152613130816130f4565b9050919050565b60006020601f8301049050919050565b600082821b905092915050565b6000600883026131847fffffffffffffffffffffffffffffffffffffffffffffffffffffffffffffffff82613147565b61318e8683613147565b95508019841693508086168417925050509392505050565b6000819050919050565b60006131cb6131c66131c1846127d5565b6131a6565b6127d5565b9050919050565b6000819050919050565b6131e5836131b0565b6131f96131f1826131d2565b848454613154565b825550505050565b600090565b61320e613201565b6132198184846131dc565b505050565b5b8181101561323d57613232600082613206565b60018101905061321f565b5050565b601f8211156132825761325381612de0565b61325c84613137565b8101602085101561326b578190505b61327f61327785613137565b83018261321e565b50505b505050565b600082821c905092915050565b60006132a560001984600802613287565b1980831691505092915050565b60006132be8383613294565b9150826002028217905092915050565b6132d7826125d0565b67ffffffffffffffff8111156132f0576132ef61245c565b5b6132fa8254612bfb565b613305828285613241565b600060209050601f8311600181146133385760008415613326578287015190505b61333085826132b2565b865550613398565b601f19841661334686612de0565b60005b8281101561336e57848901518255600182019150602085019450602081019050613349565b8683101561338b5784890151613387601f891682613294565b8355505b6001600288020188555050505b505050505050565b7f496e646578206f7574206f662072616e676520666f7220616c7068616265742060008201527f636f6e76657273696f6e00000000000000000000000000000000000000000000602082015250565b60006133fc602a836125db565b9150613407826133a0565b604082019050919050565b6000602082019050818103600083015261342b816133ef565b9050919050565b7f4e487b7100000000000000000000000000000000000000000000000000000000600052601260045260246000fd5b600061346c826127d5565b9150613477836127d5565b92508261348757613486613432565b5b828206905092915050565b600061349d826127d5565b91506134a8836127d5565b9250826134b8576134b7613432565b5b828204905092915050565b7f4e487b7100000000000000000000000000000000000000000000000000000000600052603260045260246000fd5b600081519050919050565b600082825260208201905092915050565b6000613519826134f2565b61352381856134fd565b93506135338185602086016125ec565b61353c8161244b565b840191505092915050565b600060808201905061355c600083018761269d565b613569602083018661269d565b61357660408301856128bf565b8181036060830152613588818461350e565b905095945050505050565b6000815190506135a281612724565b92915050565b6000602082840312156135be576135bd612437565b5b60006135cc84828501613593565b91505092915050565b6000819050919050565b6135f06135eb826127d5565b6135d5565b82525050565b60008160601b9050919050565b600061360e826135f6565b9050919050565b600061362082613603565b9050919050565b6136386136338261268b565b613615565b82525050565b600061364a82876135df565b60208201915061365a82866135df565b60208201915061366a8285613627565b60148201915061367a82846135df565b60208201915081905095945050505050565b60006040820190506136a1600083018561269d565b6136ae60208301846128bf565b939250505056fea264697066735822122039f731f1b86e39940b1f19f02a879048b4b65b18f6fab4cba9c37e11a06133c164736f6c63430008140033",
  "linkReferences": {},
  "deployedLinkReferences": {}
}